:020000040000fa
:080000000001040000000000f3
:020000040000fa
:04000800d001000023
:020000040000fa
:04000c00d00100001f
:020000040000fa
:04001000d00100001b
:020000040000fa
:04001400d001000017
:020000040000fa
:04001800d001000013
:020000040000fa
:04001c00d00100000f
:020000040000fa
:04002000d00100000b
:020000040000fa
:04002400d001000007
:020000040000fa
:04002800d001000003
:020000040000fa
:04002c00d0010000ff
:020000040000fa
:04003000d0010000fb
:020000040000fa
:04003400d0010000f7
:020000040000fa
:04003800d0010000f3
:020000040000fa
:04003c00d0010000ef
:020000040000fa
:04004000d0010000eb
:020000040000fa
:04004400d0010000e7
:020000040000fa
:04004800d0010000e3
:020000040000fa
:04004c00d0010000df
:020000040000fa
:04005000d0010000db
:020000040000fa
:04005400d0010000d7
:020000040000fa
:04005800d0010000d3
:020000040000fa
:04005c00d0010000cf
:020000040000fa
:04006000d0010000cb
:020000040000fa
:04006400d0010000c7
:020000040000fa
:04006800d0010000c3
:020000040000fa
:04006c00d0010000bf
:020000040000fa
:04007000d0010000bb
:020000040000fa
:04007400d0010000b7
:020000040000fa
:04007800d0010000b3
:020000040000fa
:04007c00d0010000af
:020000040000fa
:04008000d0010000ab
:020000040000fa
:04008400d0010000a7
:020000040000fa
:04008800d0010000a3
:020000040000fa
:04008c00d00100009f
:020000040000fa
:04009000d00100009b
:020000040000fa
:04009400d001000097
:020000040000fa
:04009800d001000093
:020000040000fa
:04009c00d00100008f
:020000040000fa
:0400a000d00100008b
:020000040000fa
:0400a400d001000087
:020000040000fa
:0400a800d001000083
:020000040000fa
:0400ac00d00100007f
:020000040000fa
:0400b000d00100007b
:020000040000fa
:0400b400d001000077
:020000040000fa
:0400b800d001000073
:020000040000fa
:0400bc00d00100006f
:020000040000fa
:0400c000d00100006b
:020000040000fa
:0400c400d001000067
:020000040000fa
:0400c800d001000063
:020000040000fa
:04010800d001000022
:020000040000fa
:04010c00d00100001e
:020000040000fa
:04011000d00100001a
:020000040000fa
:04011400d001000016
:020000040000fa
:04011800d001000012
:020000040000fa
:04011c00d00100000e
:020000040000fa
:04012000d00100000a
:020000040000fa
:04012400d001000006
:020000040000fa
:04012800d001000002
:020000040000fa
:04012c00d0010000fe
:020000040000fa
:04013000d0010000fa
:020000040000fa
:04013400d0010000f6
:020000040000fa
:04013800d0010000f2
:020000040000fa
:04013c00d0010000ee
:020000040000fa
:04014000d0010000ea
:020000040000fa
:04014400d0010000e6
:020000040000fa
:04014800d0010000e2
:020000040000fa
:04014c00d0010000de
:020000040000fa
:04015000d0010000da
:020000040000fa
:04015400d0010000d6
:020000040000fa
:04015800d0010000d2
:020000040000fa
:04015c00d0010000ce
:020000040000fa
:04016000d0010000ca
:020000040000fa
:04016400d0010000c6
:020000040000fa
:04016800d0010000c2
:020000040000fa
:04016c00d0010000be
:020000040000fa
:04017000d0010000ba
:020000040000fa
:04017400d0010000b6
:020000040000fa
:04017800d0010000b2
:020000040000fa
:04017c00d0010000ae
:020000040000fa
:04018000d0010000aa
:020000040000fa
:04018400d0010000a6
:020000040000fa
:04018800d0010000a2
:020000040000fa
:04018c00d00100009e
:020000040000fa
:04019000d00100009a
:020000040000fa
:04019400d001000096
:020000040000fa
:04019800d001000092
:020000040000fa
:04019c00d00100008e
:020000040000fa
:0401a000d00100008a
:020000040000fa
:0401a400d001000086
:020000040000fa
:0401a800d001000082
:020000040000fa
:0401ac00d00100007e
:020000040000fa
:0401b000d00100007a
:020000040000fa
:0401b400d001000076
:020000040000fa
:0401b800d001000072
:020000040000fa
:0401bc00d00100006e
:020000040000fa
:0401c000d00100006a
:020000040000fa
:0401c400d001000066
:020000040000fa
:0401c800d001000062
:020000040000fa
:100200000f8a20000e9f20000e01880000000000d1
:10021000000020000000e000020032000001200089
:100220002002880014000700bf0007000000e00063
:1002300003003a00a07220000100200002003700f5
:100240000000200001002000810f7000010032003a
:1002500014000700000020000000e000020032004f
:100260000000020000000000d407020000000000af
:100270000040da000000fe004440a9008000200099
:100280000000e0000300320000002000a001880010
:100290004440a800000006008a1f78008b1f7800e9
:1002a0000000060091018800800478000000eb0047
:1002b0001a003700e284440032a0b4009905ba0065
:1002c000e284440032a0b4009906ba00e2844400fb
:1002d00032a0b4000006eb00476fde00fd07b2005d
:1002e000636ce10003003a00ebff07000000eb0045
:1002f0000a003700606ce10004003a00005deb008a
:100300008b05e900fdff3e00040037006168e10055
:10031000010032000086eb000b00070019c7ba008d
:100320001905ba000e04e00003003a000a00e000dc
:10033000e0ff3a0000000600fe07b2009e018800c0
:100340008a047800f5ff3700395dba008b05e900b3
:100350000c003200295dba008b05e900080032006c
:100360000c00e00003003a00e284440032a0b40034
:10037000f5ff370019ddba008b05e900faff3a00f6
:100380008904e800e184440032a0b40000000600c3
:10039000000000000000000000000000000000005d
:1003a0000040da000000fe000a00fa001100200000
:1003b000b1bf9f00c0bf9f006a8057009b0207002b
:1003c0004fb897000080fa00000006000a00fa000b
:1003d000e20f50001f003e00e0448000e10f50009b
:1003e000060032000000200005002000030020006d
:1003f000040020000000e00004003a0080222000f9
:10040000452220002322200004222000060028008c
:100410009403630002003a0007087800140a73008e
:1004200013a8a30001003a0013a0a0000200780066
:10043000050037001388a300feff32003102fb00e5
:10044000840a78000000e9000000e000f9ff3a00ab
:100450000800370033002000b3bf9f00c0bf9f00db
:10046000d1bf9f00e2bf9f006a8057007102070062
:100470006fb99700020078000080fa0000000600c3
:100480000a00fa0051002000b1bf9f00c0bf9f00ca
:100490006a805700690207005fb897000080fa0081
:1004a00000000600889fbe0080047800f0448000b1
:1004b0000000e00004003a000e0007000084eb009a
:1004c0000000e00008003500f84480000900e0006a
:1004d0000500320009004400060007000000e000ab
:1004e00001003d000084eb00080078004f04be00ce
:1004f00000000600800078000100e00003003a00e0
:1005000000002000f0448800000005000080eb009f
:1005100002002000828f500002003e00f14488005b
:100520000000eb0000000600000005002183200011
:100530002f000700800078000080eb000100e00041
:100540000400350021832000a000200002000700e5
:100550004f80de0000000600889fbe008a1f7800e2
:100560000004be00c900900069009000808f500018
:100570000500390009007800910007008080eb0039
:100580000000e000160035000845780049009000a2
:1005900008587800c00498001900780000b8a3003b
:1005a00004003a0000a8a30007003200ea4f5400fc
:1005b00005003a0009007800210107008080eb0067
:1005c0000000e00006003a0000c0200019006000b2
:1005d0000200320049009000e00498008a80fb008d
:1005e000010078004f0578004f04be0000000600af
:1005f000889fbe008a9fbe008c1f78008004780010
:10060000010478002f003700c800900068009000b7
:10061000808f50000400390008007800680007004f
:100620000000e0003a0035000040200018006000a3
:100630000a003200a10020000900780050000700e5
:10064000000678000c00e000040032006185140010
:100650000a054600cfd5de00040037000900780007
:100660003b0007000005be000006eb0048009000bc
:100670006801900000015100cf91de008a0f510007
:100680008b8f5900020031000205be000006eb000e
:100690000a01be008900780022000700480090008f
:1006a0000a004000400498000c00e0000400320002
:1006b00008007800e20007000000e00014003a00a3
:1006c0008a8444001904e000cfff3a000080200033
:1006d000180060000600320008007800d80007000b
:1006e000800078000080eb000100e00009003a0083
:1006f00001c02000988060000000eb00050032007f
:1007000048009000600498000000eb0001003700f2
:100710000080eb004f0678004f05be004f04be007e
:10072000000006000202be008001eb00040037005a
:1007300061f0790061025200e0825a008301e80012
:10074000e00f5200e08f5a00f9ff3a000000060067
:10075000800078000000eb00610ab8006101b80079
:10076000040341000000e800644179000204e00055
:10077000f9ff3a0001005300cf80de0000000600c0
:10078000889fbe006011b8006103b8006112b80014
:100790000404430085844b0066427a00814f520076
:1007a00001003a00880178000201e8000404e0003a
:1007b000f5ff3a00030078004f04be000000060079
:1007c000889fbe008a1f780000047800c80090004f
:1007d000680190000000eb00828f50003d0039005e
:1007e000180078002200290002016000e20f510089
:1007f00007003200012024000000e00001003d005d
:1008000001202000008c70000080eb0031003700d8
:100810000200260002006000820f500009003a002a
:1008200038009000808f50000600390008007800e2
:1008300083000700800078000080eb000100e000ea
:1008400024003a001805780000c020000000650070
:1008500019003a00a804900060022000080040003f
:10086000808f540014003a00002020000100200076
:100870002b010700200498000000e00005003a006a
:1008800029049800490498008904e8003904980074
:10089000080037000a60a0000a0c780040049800a5
:1008a000012020008080400031049800400c980016
:1008b000500c98000c00070028009000500498008d
:1008c000380090006004980000002600180c7000aa
:1008d0000000eb004f0578004f04be00000006004a
:1008e000a050200091003700881f7800a8892000c0
:1008f0001804e00003003a00f9ff070020c0b3002d
:10090000004c78004f04780000000600889fbe006d
:10091000000478000800780049000700800478008f
:10092000000420001800600002003200280090003f
:100930008a0007000000eb00200498003840900077
:100940000004e000050035000000fb0096fe0700f3
:100950000000e000010032008084eb0018109000dd
:100960000000e00008003200c5fe07000000e000c3
:10097000010032008084eb0018109000770007001f
:100980000000eb0010149800000820001800600020
:100990000f003200018820000000eb00d10f14008e
:1009a00005003a000000400021882000008040003f
:1009b0000008eb00030037000000e800e80f5000db
:1009c000f6ff3a0008007800640007000e003700c8
:1009d000000c780000c0eb0030449800600220005a
:1009e000080040002004980040049800500498003b
:1009f000400c980060049800500c98007004980017
:100a000076004400000c9800090078004f04be00f6
:100a100000000600889fbe0028892000f0045400d2
:100a2000480078000000e00001003200b7ff070036
:100a3000890f5400faff3a004f04be000000060080
:100a4000889fbe008a1f7800000478000800e0003c
:100a50000d003a0008882000700544008004eb0077
:100a6000580078000000e00004003200f4ff0700a6
:100a70000000e00001003d008084eb008a0f54007c
:100a8000f7ff3a0025003700000022001800600040
:100a90008004eb0021003200a80490000f00370012
:100aa00009015100384090000000fb0089007800e7
:100ab00046fe07000000e00007003c002800900010
:100ac0004004980060049800500c98001890a00012
:100ad0008084eb00110037008084440048019000be
:100ae000828f5400eeff39002800900040049800e7
:100af0009800780002c020000281600001003a00e6
:100b00003800900001e8a300020032006004980061
:100b100001003700500c98008004eb0009007800b9
:100b20004f0578004f04be000000060001002000c1
:100b30000100e00008003200010080000100e00038
:100b4000050032008100e90001008800818040003a
:100b50000200800000b17800000006000000e00004
:100b6000320032004002be00e50f5200e08f5a0012
:100b70002e0036000408a3002c003a00c144800077
:100b80000100e00002003200810f5000040031003b
:100b900021009800c04488001700370082007800c8
:100ba000210190000200e00002003200800f51009d
:100bb000faff39001103be0086814000830f500008
:100bc0001a003900808f510004003a008418430055
:100bd00085904b0001007800070037000200e0001c
:100be0000300320004024000840f51000f0039005e
:100bf00022009800a0009800a00090000100e000f2
:100c00000a00320010014000828f500007003a00b5
:100c1000628920000009eb001001be00311841007c
:100c200021904900a10090002100980000000600da
:100c3000889fbe008a9fbe000004be00b1448000b1
:100c40000100e00002003200010078000f003700d0
:100c5000c14480008089200005003700b10f540096
:100c6000a18f5c002b00360064804000a100900042
:100c70000100e000f9ff3a0012003700b20f540003
:100c8000a28f5c0023003600640041001001780050
:100c90000200e000f9ff3a0011017800c144800031
:100ca0008089200005003700b10f5400a18f5c003f
:100cb0001800360064804000a1009000828f500030
:100cc000f9ff3a009a448000ab448000880f550039
:100cd000898f5d00010031000805be000a00be00da
:100ce000460007000000e00006003a00880f5500ab
:100cf000898f5d00060032008b05d1000a85d30084
:100d0000f2ff37000a98be0094ff0700cbff3700c0
:100d10000000eb004f05be004f04be0000000600bf
:100d2000889fbe000002be0065004000e0804800d1
:100d3000000378000600a100810178000601780018
:100d40000204be008000eb00840f5400858f5c001d
:100d500027003600e50f5400e08f5c0002003e00e3
:100d600068002000090020000800be00b0ff070056
:100d70008000eb000000e0001d00320090007800d1
:100d8000a4ff2f00f5ff2f0031014200a1814a008e
:100d9000880f5100898f590003003100a102900093
:100da0000508780008003700088140000208780034
:100db000a10190002301980010017800311914005e
:100dc00021911c008888be00100178000000eb0013
:100dd0000200e00004003200a20190000300e000e5
:100de0000100320064004100b0448800e48040000b
:100df000010078004f04be00000006000001be00a4
:100e00008000eb000200e0000600340002007800e1
:100e1000a4fd070080007800e18f400001003a0047
:100e20008000eb00010078000000060000c0da003e
:100e30000000060000c0da000000060000c0da0072
:040e400000000600a8
:020000040000fa
:100e4400323600002042000052470000200000001b
:020000040000fa
:100e5400000800000a000000000000000a0800006a
:100e640088000000020000000100000000300800bb
:100e7400310830000830080030083000082008002d
:100e8400000000000000000000000000000000005e
:100e94000000000000000000000000000002080044
:100ea400010158000859080058085800085808005b
:100eb400580848000800000000000000000000007e
:100ec400000000000000000000000000000000001e
:100ed4000000020008020200800881000880080067
:100ee40080088000088008007008000000000000ee
:100ef40000000000000000000000000000000000ee
:100f040000000000000000000a083200085a08002f
:100f140000000000000000000000000000000000cd
:100f24009a0800000200000000000000920800007f
:100f340004000000020000000600000000000000a1
:100f44009608000004000000000000009c08000057
:100f54000200000002000000010000009e080000e2
:0c0f64000200000000000000000000007f
:020000040000fa
:100f7000f03fb1000180b10006003500ee0309002a
:100f800000000000403fb1000180b100fbff3d00c8
:100f90001000b000203fb0000200350000800900c2
:080fa000000000000000060043
:020000040000fa
:100fa8000000fa00a00120004011880021e2a800fa
:100fb800207228005bfd070000202100a107200007
:080fc800e9ff0700faff370002
:020000040000fa
:0200000401f009
:04000000ffff0000fe
:020000040000fa
:0200000401f009
:04000800ffff0000f6
:020000040000fa
:0200000401f009
:04000c00feff0000f3
:020000040000fa
:0200000401f009
:04001000beff00002f
:020000040000fa
:0200000401f009
:040014007fff00006a
:020000040000fa
:0200000401f009
:04001800ffff0000e6
:020000040000fa
:0200000401f009
:04001c00ffff0000e2
:00000001FF
