:020000040000fa
:080000000001040000000000f3
:020000040000fa
:04000800d40100001f
:020000040000fa
:04000c00d40100001b
:020000040000fa
:04001000d401000017
:020000040000fa
:04001400d401000013
:020000040000fa
:04001800d40100000f
:020000040000fa
:04001c00d40100000b
:020000040000fa
:04002000d401000007
:020000040000fa
:04002400d401000003
:020000040000fa
:04002800d4010000ff
:020000040000fa
:04002c00d4010000fb
:020000040000fa
:04003000d4010000f7
:020000040000fa
:04003400d4010000f3
:020000040000fa
:04003800d4010000ef
:020000040000fa
:04003c00d4010000eb
:020000040000fa
:04004000d4010000e7
:020000040000fa
:04004400d4010000e3
:020000040000fa
:04004800d4010000df
:020000040000fa
:04004c00d4010000db
:020000040000fa
:04005000d4010000d7
:020000040000fa
:04005400a0110000f7
:020000040000fa
:04005800d4010000cf
:020000040000fa
:04005c00d4010000cb
:020000040000fa
:04006000d4010000c7
:020000040000fa
:04006400d4010000c3
:020000040000fa
:04006800d4010000bf
:020000040000fa
:04006c00d4010000bb
:020000040000fa
:04007000d4010000b7
:020000040000fa
:04007400d4010000b3
:020000040000fa
:04007800d4010000af
:020000040000fa
:04007c00d4010000ab
:020000040000fa
:04008000d4010000a7
:020000040000fa
:04008400d4010000a3
:020000040000fa
:04008800d40100009f
:020000040000fa
:04008c00d40100009b
:020000040000fa
:04009000d401000097
:020000040000fa
:04009400d401000093
:020000040000fa
:04009800d40100008f
:020000040000fa
:04009c00d40100008b
:020000040000fa
:0400a000d401000087
:020000040000fa
:0400a400d401000083
:020000040000fa
:0400a800d40100007f
:020000040000fa
:0400ac00d40100007b
:020000040000fa
:0400b000d401000077
:020000040000fa
:0400b400d401000073
:020000040000fa
:0400b800d40100006f
:020000040000fa
:0400bc00d40100006b
:020000040000fa
:0400c000d401000067
:020000040000fa
:0400c400d401000063
:020000040000fa
:0400c800d40100005f
:020000040000fa
:04010800d40100001e
:020000040000fa
:04010c00d40100001a
:020000040000fa
:04011000d401000016
:020000040000fa
:04011400d401000012
:020000040000fa
:04011800d40100000e
:020000040000fa
:04011c00d40100000a
:020000040000fa
:04012000d401000006
:020000040000fa
:04012400d401000002
:020000040000fa
:04012800d4010000fe
:020000040000fa
:04012c00d4010000fa
:020000040000fa
:04013000d4010000f6
:020000040000fa
:04013400d4010000f2
:020000040000fa
:04013800d4010000ee
:020000040000fa
:04013c00d4010000ea
:020000040000fa
:04014000d4010000e6
:020000040000fa
:04014400d4010000e2
:020000040000fa
:04014800d4010000de
:020000040000fa
:04014c00d4010000da
:020000040000fa
:04015000d4010000d6
:020000040000fa
:04015400d4010000d2
:020000040000fa
:04015800d4010000ce
:020000040000fa
:04015c00d4010000ca
:020000040000fa
:04016000d4010000c6
:020000040000fa
:04016400d4010000c2
:020000040000fa
:04016800d4010000be
:020000040000fa
:04016c00d4010000ba
:020000040000fa
:04017000d4010000b6
:020000040000fa
:04017400d4010000b2
:020000040000fa
:04017800d4010000ae
:020000040000fa
:04017c00d4010000aa
:020000040000fa
:04018000d4010000a6
:020000040000fa
:04018400d4010000a2
:020000040000fa
:04018800d40100009e
:020000040000fa
:04018c00d40100009a
:020000040000fa
:04019000d401000096
:020000040000fa
:04019400d401000092
:020000040000fa
:04019800d40100008e
:020000040000fa
:04019c00d40100008a
:020000040000fa
:0401a000d401000086
:020000040000fa
:0401a400d401000082
:020000040000fa
:0401a800d40100007e
:020000040000fa
:0401ac00d40100007a
:020000040000fa
:0401b000d401000076
:020000040000fa
:0401b400d401000072
:020000040000fa
:0401b800d40100006e
:020000040000fa
:0401bc00d40100006a
:020000040000fa
:0401c000d401000066
:020000040000fa
:0401c400d401000062
:020000040000fa
:0401c800d40100005e
:020000040000fa
:100200000f8d20000e9f20000e01880000000000ce
:10021000000020000000e000020032000001200089
:100220002002880014000700c10007000000e00061
:1002300003003a008007210001002000020037007f
:100240000000200001002000810f7000010032003a
:1002500014000700000020000000e000020032004f
:100260000000020000000000341102000000000045
:100270000040da000000fe004440a9000001200018
:100280000000e0000300320000002000a001880010
:100290004440a800000006008a1f78008b1f7800e9
:1002a0000000060091018800800478000000eb0047
:1002b0001a003700e284440032a0b4009905ba0065
:1002c000e284440032a0b4009906ba00e2844400fb
:1002d00032a0b4000006eb00476fde00fd07b2005d
:1002e000636ce10003003a00ebff07000000eb0045
:1002f0000a003700606ce10004003a00005deb008a
:100300008b05e900fdff3e00040037006168e10055
:10031000010032000086eb000b00070019c7ba008d
:100320001905ba000e04e00003003a000a00e000dc
:10033000e0ff3a0000000600fe07b2009e018800c0
:100340008a047800f5ff3700395dba008b05e900b3
:100350000c003200295dba008b05e900080032006c
:100360000c00e00003003a00e284440032a0b40034
:10037000f5ff370019ddba008b05e900faff3a00f6
:100380008904e800e184440032a0b40000000600c3
:10039000000000000000000000000000000000005d
:1003a00000000000000000000040da000000fe0035
:1003b0000a00fa0011002000b1bf9f00c0bf9f00db
:1003c0006a805700120607004fb897000080fa00b5
:1003d000000006000a00fa00e20f50001f003e0075
:1003e00060468000e10f500006003200000020004f
:1003f0000500200003002000040020000000e000b1
:1004000004003a0080222000452220002322200000
:1004100004222000060028009403630002003a0032
:1004200007087800140a730013a8a30001003a001b
:1004300013a0a00002007800050037001388a30075
:10044000feff32003102fb00840a78000000e90060
:100450000000e000f9ff3a000800370033002000f8
:10046000b3bf9f00c0bf9f00d1bf9f00e2bf9f00ee
:100470006a805700e80507006fb99700020078000e
:100480000080fa00000006000a00fa005100200077
:10049000b1bf9f00c0bf9f006a805700e005070002
:1004a0005fb897000080fa0000000600889fbe0039
:1004b00080047800704680000000e00004003a00ec
:1004c0000e0007000084eb000000e000080035008b
:1004d000784680000900e000050032000900440071
:1004e000060007000000e00001003d000084eb0072
:1004f000080078004f04be0000000600800078006d
:100500000100e00003003a0000002000704688006f
:10051000000005000080eb0002002000828f5000e8
:1005200002003e00714688000000eb00000006005b
:1005300000000500889fbe000004780001007800dc
:1005400082047800880178000901780011002000f9
:10055000c8010700890f5000010032000004eb00c1
:10056000080078004f04be00000006000000fa00fa
:10057000e88157004fb9970081822000a029200010
:10058000020007000080fa00000006006200fa0086
:10059000889fbe008a1f78000005780081047800db
:1005a000020478008300780080f92f000f004000db
:1005b000530407009a979f00a9979f000000eb0043
:1005c000b09f9f001885fb008a04fb000a05ea0023
:1005d0004f55de0050022000808f54000d00320085
:1005e000e10f55000b003a000a01780088007800fe
:1005f0002f9097009f91970003000100a0979f0004
:100600000000e0008e0032003f9897000000e800f4
:10061000b09f9f000a04440050022000808f5400c5
:10062000040032000900e000e6ff3a003f9897001e
:10063000840037000000eb00909f9f00809f9f0088
:10064000f0979f00e0979f00d0979f00c0979f0072
:1006500007003700e18b200001005000000040003f
:10066000218b200061007800df9897000100700066
:10067000d09f9f00880478000904780038457800ee
:100680008a00fb00e08b2000df0107000000e00093
:10069000f0ff3a00a1c2b300814f55000e003a00ae
:1006a000cf8897000180e900c08f9f00100078007c
:1006b000c09f9f000000e00005003d000000ea0030
:1006c000c09f9f005f9897000020a000d09f9f00d0
:1006d0000904e8000f003700c09f9f000000eb00f6
:1006e00005003700f2ff2700820f500002003200a1
:1006f0006a01b9000280400009047800880478008b
:10070000b900fb000103b100e98f5000f5ff36008e
:10071000c09f9f00e0c2b300984f1000020032005b
:100720000080eb0019003700a0c2b300d84f1000c2
:1007300007003a00cf8897000180e900c08f9f0032
:1007400010007800a09f9f000804e8001000370008
:100750000000eb00a09f9f00880078000500370094
:10076000f3ff2700830f5000020032006a02b90035
:100770000400410001047800880078003101fb008a
:100780000203b100e90f5100f5ff3600a09f9f0062
:10079000984478008900fb00a08a20009a01070095
:1007a0000000e000020032000804e8000100370009
:1007b0008044eb00c97f9f0080c6b30080cf540007
:1007c00004003a0098cf14000a003a006640500036
:1007d00006003700c0c6b30080cf540005003a00c1
:1007e00098cf140003003a0065404000c07f9f008e
:1007f0000804e8001801fb00e3fb2f008f81410093
:1008000081f92f008f804000a0f92f000f004000d9
:10081000100007000000e00009003a00e1fb2f0093
:100820008f804000a0f92f000f004000f802070061
:100830000000e000020035000804e80061ff370016
:100840000080eb004f0578004f04be000080fa00e6
:1008500000000600881f7800e4c6b300844f5100f2
:10086000b600320010003c006b425200844f510031
:100870001800320005003c0054c2b300844f510000
:10088000ee00320084c5b3000f00370044c6b30049
:10089000844f51001400320065424200844f5100e1
:1008a000e9003a001000370004c7b300844f51003c
:1008b000d50032005300350065424200844f51009c
:1008c0005000320063424200844f5100de003a0083
:1008d0004c0037001181e90082087800f000900098
:1008e00012417800d600370020629000c5c6b300e0
:1008f000854f520007003a0091027800648252004e
:10090000840878001402be004fabde008603780036
:100910001100370015c7b300854f520003003200a5
:10092000a5c6b300854f520006003a009102780038
:1009300068825200840878005403be004402be005e
:10094000050037001182e90084087800140278005d
:10095000cfa2de00612bb9000498be000690be0055
:10096000a060900088c6b30088cf50000d00320010
:1009700028c6b30088cf500004003a000402fb00f0
:10098000cfa2de00612bb9000800370048c7b300d2
:1009900088cf5000030032006644440088cf5000e6
:1009a00004003a00cfa2de00612bb9000498be001b
:1009b0000690be003002be002003be00f000900092
:1009c000e00f5200e08f5a00e00f5b00e08f5b0009
:1009d00002003d00d4c2b3000800370000129000ae
:1009e0000418a30002003200b4c2b30003003700b1
:1009f0000408a3004c00320004c2b30084f1780064
:100a00004700370020629000c5c6b300854f5200f2
:100a100006003a009102780064825200840878004f
:100a20001402be006033b8001100370015c7b300d0
:100a3000854f520003003200a5c6b300854f520017
:100a400006003a009102780068825200840878001b
:100a50005403be004402be00050037001182e900c5
:100a600084087800140278008002eb006033b8003c
:100a70000498be000690be00a060900088c6b30037
:100a800088cf50000d00320028c6b30088cf500038
:100a900004003a000482fb008002eb006033b800df
:100aa0000800370048c7b30088cf50000300320069
:100ab0006644440088cf500004003a008002eb00f6
:100ac0006033b8000498be000690be00801090000d
:100ad0000138a300140032003002be002003be0023
:100ae000e00f5200e08f5a00e00f5b00e08f5b00e8
:100af0000d00320081c7b300814f51000300320066
:100b000081c5b300814f510007003a00f00090000a
:100b100004c3b30084f178008100e80082f178001a
:100b20008100e80071009800f00090008181410090
:100b300063009800824078003e003700a06190007a
:100b4000c4c6b3001181e90084cf510022003200f5
:100b50000a003c006442520084cf5100250032005c
:100b600004c2e80084cf51001300320068425200f2
:100b700084cf51001e003a000a00370044c7b3007a
:100b800084cf51001b0032006642420084cf5100e6
:100b9000180032006942520084cf510014003a001c
:100ba00005003700820878009200780040589000d5
:100bb000804878002c003700820878009200780086
:100bc000600a9000cfa2de00612bb9008498be00bd
:100bd0008690be00240037008208780092007800da
:100be00060099000cf91de008288be001e003700b1
:100bf0001181e90082087800920078006008900076
:100c000080087800180037001181e9008208780018
:100c100012027800cfa2de00612bb9000498be005a
:100c20000690be00f00090008181410063009800b2
:100c300081c7b300c70007000b003700f000900029
:100c400082f1780006003700f000900081814100b9
:100c50000204e00001003a0052c2b3008249780069
:100c60008100e800710098000000eb004f0478005c
:100c700000000600889fbe008a9fbe008c9fbe00b9
:100c80008e1f7800000678000104780002007800ca
:100c9000830478000881b900020778000200e000b0
:100ca000420032000800e000410032008205780076
:100cb000c900900069009000808f50000400390046
:100cc000090078005c0007000000e0002900350002
:100cd00000402000190060000a0032000b0178007b
:100ce000a10020000c007800360007008006780084
:100cf0000d00e00006003200610516000a8546007e
:100d0000040037000b0578008006eb000100370077
:100d10000b05780049009000e900900080805000a9
:100d20008a8f500002003100010578008006eb0038
:100d30000a0178008c0078002c0007008a85550095
:100d4000490090000a004000c00498000d00e00037
:100d50000400320009007800ce0207000000e00025
:100d600004003a000b00e000020032000a064600d0
:100d7000cfff370000802000190060000200320021
:100d800009007800c302070000c0200019006000bd
:100d90000200320049009000e00498008b055700e3
:100da000110009008885d800010037000000eb0021
:100db0004f0778004f06be004f05be004f04be002f
:100dc0000000060003003700b0cf1000050032001d
:100dd0000201e900800178000200e000faff3a0019
:100de0000000050003007800000006008001780084
:100df00002003700b15978000201e9000200e0006a
:100e0000fcff3a0000000600020037000304e00087
:100e1000060032000001780002007800b04178003e
:100e200081cf5100f9ff3a00010037000001eb00cb
:100e30000200780000000600889fbe008a1f78002c
:100e400000047800c8009000680190000000eb00ea
:100e5000828f50003c0039001800780022002900e1
:100e600002016000e20f510007003200012024005f
:100e70000000e00001003d0001202000008c700017
:100e80000080eb0030003700020026000200600006
:100e9000820f500009003a0038009000808f500007
:100ea00006003900080078007a0207008000780008
:100eb0000080eb000100e00023003a0018057800f4
:100ec00000c020000000650018003a00a80490004f
:100ed0006002200008004000808f540013003a0098
:100ee0000020200016030700200498000000e00006
:100ef00005003a0029049800490498008904e80094
:100f000039049800080037000a60a0000a0c780035
:100f100040049800012020008080400031049800a7
:100f2000400c9800500c9800f90107002800900030
:100f300050049800380090006004980000002600db
:100f4000180c70000000eb004f0578004f04be0045
:100f500000000600fc874700889fbe008a9fbe00f5
:100f60008c9fbe008e1f78000006780080c5b300fd
:100f700080cf50000a0032007740400080cf500000
:100f80000a0032006940400080cf50000b00320060
:100f90009089200080bf9f00ae0020000a0037002b
:100fa0008288200082bf9f000600370093892000be
:100fb00083bf9f008e00200003003700948920002b
:100fc00084bf9f000e0120003c02be002c03be0027
:100fd0000605be000404be0040c6b30080cf50002a
:100fe000030032006540400080cf50000b003a0003
:100ff000e00f5200e08f5a00e00f5b00e08f5b00d3
:1010000006003d006000b8006011b8000404500004
:10101000858458000605590087855900e80f570058
:101020000400320040002000f00f570038003a0062
:101030000100370030002000e00f5400e08f5c001a
:10104000e00f5d00e08f5d0004003a00dc089000d6
:101050008d0120000100e000060032008e00e90052
:10106000888060008fba9700e5c07800f1ef9f009c
:101070007d012000800078008100e9000500330038
:101080008b05d1000a85d3008984d3000884d3005e
:10109000f9ff3700089ebe000a96be001200370016
:1010a0008d06e9008e00e900848060000fb997008a
:1010b000e2c1780082fd2f000f01410003f17e00a4
:1010c000800078008100e900050033008783d100ab
:1010d0000683d3008582d3000482d300f9ff370052
:1010e000049ebe000696be003c02be002c03be005d
:1010f000e00f5200e08f5a00e00f5b00e08f5b00d2
:101100008b0034000d00e000e5ff3c008800370054
:101110002c60900081c6b300814f50000b0032005c
:1011200006003c000004e00008003200e6c0500069
:10113000814f50004e003a0004003700c1c6b30092
:10114000814f50004a003a00210037000800e000bb
:1011500004003a005c0890008d0120000000e000cf
:1011600006003200110009000e84d8000fb9970064
:10117000e2c07800f1ef9f007d012000110009001e
:101180000e84d8000a003700110009000e04d800b0
:101190008d06e9000e81b900020454008fb8970053
:1011a00061417c0081fd2f008f80400082f07e0035
:1011b000000478000800e000020032000d00e000aa
:1011c000f1ff3c00cfc4de00614db90025003700bf
:1011d000e00f5400e08f5c0004003a005c089000cf
:1011e0008d0120000000e000070032006171b900ad
:1011f0000800be00ab0207008fb99700e3417800fa
:10120000f3ef9f007d0120006171b9000800be006e
:10121000940207000b0037006171b9000800be009e
:10122000810207008d06e90000f1b90002045400b4
:101230000fba9700e4427c0084fd2f000f024200a9
:1012400005f27e000004be00e00f5000e08f580061
:10125000020032000d00e000efff3c004fcdde0049
:101260008a057800089ebe000a96be00300037004e
:10127000e00f5400e08f5c00e00f5d00e08f5d0048
:1012800004003a005c0890008d0120000000e0009e
:10129000090032006172b900612bb9000800be007c
:1012a0000a01be00280307000fba970064427800c5
:1012b000f4ef9f007d0120006172b900612bb9003d
:1012c0000800be000a01be00180307000d00370029
:1012d0006172b900612bb9000800be000a01be00ae
:1012e0001d0307008d06e90000f2b9000404540054
:1012f0008fba970065427c0085fd2f008f824200e7
:1013000084f27e00009ebe000296be003c04be0039
:101310002c05be00e00f5400e08f5c00e00f5d0084
:10132000e08f5d00020034000d00e000e8ff3c00ab
:10133000e80f570010003a000c1090000038a3008e
:101340000d003200f78f560006003e0085fd2f008d
:101350008f824200e5c07e0000c3b30080cf500002
:10136000050032008d06e90002c3b30081fd2f00a5
:101370008f80400082f07e0078811600120e980067
:101380006c00900083fd2f008f8141008d80410013
:1013900096fe07001c089000dc089000810f5000aa
:1013a00006003d0000805000000e98000c109000d8
:1013b0000040a100001698000f0037000100e00077
:1013c0000d003d008c109000f4806000f08f500004
:1013d00009003a007c099000fc0090008100510057
:1013e0000c09900082805000008050004240a9000b
:1013f00001003400000e98004f0778004f06be0031
:101400004f05be004f04be00cf01b1000000060032
:101410000400fa00889fbe008a9fbe008c1f7800df
:101420000004780001067800f80d90007800900024
:1014300080855500080890008085550018089000a8
:101440008085550028089000808555003808900058
:1014500080855500480890008085550000022200d4
:1014600090bf9f0000032300a0bf9f0008109000c2
:101470000028a30015003a000b00e0001300340020
:101480000b0578008a047800e20f55000100360051
:1014900029002000c801900009017800ee80570063
:1014a0005800900003000100500498000000e00084
:1014b0008c0032006808900009004000600c980021
:1014c000090555004240a900eeff3c00780190005c
:1014d0000200e0000c003400c80190008c0078008d
:1014e0005800900003000100500498008080eb0039
:1014f0000000e0007c003200e808900078009000d6
:1015000000804000600c9800880c90000900e0000a
:101510001100340009057800e28f54000100360004
:101520002a002000c80190000a017800ec805700d2
:101530005800900003000100500498000000e000f3
:1015400068003200680890000a004000600c9800b3
:101550008a845400edff3700180990000200e00073
:101560000c003400c8019000e80090005800900082
:1015700003000100500498008080eb000000e000b0
:1015800059003200e80890001808900000804000e0
:10159000600c9800a80c90000900e00011003400d5
:1015a00009057800e28f5400010036002a0020006f
:1015b000c80190000a017800ec80570058009000a4
:1015c00003000100500498000000e00045003200d4
:1015d000680890000a004000600c98008a8454005b
:1015e000edff3700380990000200e0000e003400e3
:1015f000e80090001808900080804000c80190002a
:101600005800900003000100500498008080eb0017
:101610000000e00034003200e80890003808900034
:1016200000804000600c9800c80c90000900e000a9
:101630001100340009057800e28f540001003600e3
:101640002a002000c80190000a017800ec805700b1
:101650005800900003000100500498000000e000d2
:1016600020003200680890000a004000600c9800da
:101670008a845400edff3700081090008000eb00d2
:101680000028a300180032000b00e0001600340010
:101690008b04780009057800e28f540001003600c1
:1016a0002a002000c80190000a017800ee8057004f
:1016b0005800900003000100500498000000e00072
:1016c00008003200680890000a004000600c980092
:1016d0008a8454004240a900eeff3c008000eb00e9
:1016e000010037008080eb00010078004f06780091
:1016f0004f05be004f04be000080fa000000060047
:101700000108780000000600a0c220009b003700fe
:10171000881f7800888c20001804e00003003a003d
:10172000f9ff070020c0b300004c78004f04780098
:1017300000000600889fbe000004780008007800c2
:1017400054000700800478000004200018006000a6
:101750000200320028009000940007000000eb0017
:1017600020049800384090000004e0000500350097
:101770000000fb000efb07000000e000010032004b
:101780008084eb00181090000000e0000800320098
:101790003dfb07000000e000010032008084eb0008
:1017a00018109000810007000000eb001014980052
:1017b0000008200018006000150032000001eb0056
:1017c0006000b800838720000202d00063027a0024
:1017d000880f520005003a00000040008180480058
:1017e000008041000008eb00060037006100400067
:1017f000e08048000201e800e80f5000e08f580048
:10180000f0ff3a0008007800680007000e0037007b
:10181000000c780000c0eb0030449800600220000b
:1018200008004000200498004004980050049800ec
:10183000400c980060049800500c980070049800c8
:1018400076004400000c9800090078004f04be00a8
:1018500000000600881f78000004eb006140b8001b
:10186000e2ff2f00f3ff2f00110107006288200024
:10187000620078000000e00001003200adff0700c8
:101880000804e800e80f5400f4ff3a004f04780021
:1018900000000600889fbe00000478000800e000f9
:1018a0000e003a008004eb008800d0008087200002
:1018b000610078000000e00004003200f5ff07003e
:1018c0000000e00001003d008084eb000804e80017
:1018d000e80f5400f4ff3a00250037000000220012
:1018e000180060008004eb0021003200a804900082
:1018f0000f00370009015100384090000000fb0044
:1019000089007800b3fa07000000e00007003c00ff
:10191000280090004004980060049800500c980043
:101920001890a0008084eb001100370080844400f0
:1019300048019000828f5400eeff3900280090008b
:10194000400498009800780002c0200002816000e6
:1019500001003a003800900001e8a30002003200c4
:101960006004980001003700500c98008004eb00e0
:10197000090078004f04be000000060001002000ae
:101980000100e00008003200010080000100e000da
:10199000050032008100e900010088008100d000cc
:1019a0000200800000b17800000006000000e000a6
:1019b0002f003200c0017800e38f51002c00360068
:1019c0000308a3002a003a00314680000100e0002d
:1019d00002003200810f5000040031001100980015
:1019e0003046880016003700820078001101900010
:1019f0000200e00002003200800f5100faff3900bf
:101a00001102780084824000850f500018003900d0
:101a1000808f520003003a008308420001007800e2
:101a2000070037000200e00003003200830140009d
:101a3000830f51000e0039001200980090009800aa
:101a4000900090000100e000090032001001400009
:101a5000828f500006003a00428c20000009eb0003
:101a600010017800110841009100900011009800c9
:101a700000000600889fbe00000478002146800018
:101a80000100e00002003200010078000d00370084
:101a900031468000608c200004003700910f540014
:101aa000250036000180e800910090000100e00070
:101ab000faff3a0010003700920f54001e00360063
:101ac0000280e800100178000200e000faff3a000e
:101ad0001101780031468000608c2000040037003e
:101ae000910f5400140036000180e800910090002e
:101af000828f5000faff3a0059468000888f5400c8
:101b000001003100880478000900780036000700e1
:101b10000000e00004003a00888f54000500320005
:101b20008904d100f5ff3700091878009fff0700ee
:101b3000d2ff37000000eb004f04be00000006009b
:101b4000881f7800630440000800a1008000eb00bb
:101b5000800f540021003600e30f540001003e00c6
:101b60004800200008007800c2ff07008000eb005a
:101b70000000e00019003200900078009101780028
:101b800064815100880f5100030031001101900061
:101b9000020878000700370008814000020878003a
:101ba00091019000130198001001780011091400b0
:101bb00088087800100178000000eb000200e000c7
:101bc00004003200920190000300e00001003200a6
:101bd0000280e800204688008180e800010078004b
:101be0004f04780000000600800078000000eb0041
:101bf0000100e00005003400010078002bfa070026
:101c0000e10f400001003a000000eb000000060078
:101c100000c0da000000060000c0da000000060084
:101c200000c0da0000000600839f68000100e000a9
:101c300002003d0060001000e08018000300e0009a
:101c400002003d0060011100e0811900050007005d
:101c50004f00e00002003b0060001000e080180030
:101c6000000006006022b800060220000000d0003c
:101c70008180d2000482d2008582d2000000a000c0
:101c80000202520083825a00030031000202420025
:101c900083824a000000a1000603e900f3ff3a0036
:101ca00000000600efff07000400be000000060071
:101cb000020ab900001bb9000200b800810042000e
:101cc0008100430000000600889fbe008a9fbe007e
:101cd00030044200b0844a0030054b0090854b0030
:101ce0006000b1000898be000a90be000440e10008
:101cf00005c8e10006d0e10007d8e100020031008c
:101d0000680040001008e8004f05be004f04be0008
:101d100000000600889fbe008a9fbe003004be00ff
:101d20002005be000418540005985c0006185d00ec
:101d300007985d00110020000440e10005c8e100a3
:101d400006d0e10007d8e100010039008000eb0077
:101d5000108810004f05be004f04be0000000600b2
:101d60001200fa00889fbe008a9fbe008c9fbe00b2
:101d7000e0b79f00f1b79f0082bf9f0093bf9f0015
:101d80000605be000404be000000eb00d0b79f00b3
:101d9000c0b79f00b0b79f00a0b79f0090b79f004b
:101da0000006eb005fb19700cfb0970082014100c1
:101db0003fb097000200e00004003d00370007003c
:101dc0007e805700c0ff0700030037003300070084
:101dd0007e805700cfff0700dfb697000d00e000c0
:101de0000c0035006fb29700ffb297000fbb970051
:101df0009fbb970010002000010020006011b80078
:101e000000027200818272000203730083837300f8
:101e10001b0007000c06e80001042000810f56009b
:101e2000e0ff3a000d00e00004003d000802be00a3
:101e30000a03be007e805700a3ff07005fa897003b
:101e40000000e00005003a001fb29700afb2970013
:101e50003fb39700cfb39700090007006fb097001a
:101e6000ffb097000fb997009fb997004f06be00cb
:101e70004f05be004f04be000080fa0000000600bf
:101e80000100070000000600a4b79f00b5b79f003f
:101e9000c6b79f00d7b79f00000006004f09de00bd
:101ea00082817100b3b79f004f01de008180400046
:101eb00082807000a1b79f008fb097004f09de00ad
:101ec000000040000200700090b79f007fa89700bc
:101ed0004f01de00818040008280700081b79f004a
:101ee0000d0007004f3ade000000400004007000c3
:101ef000f0af9f00080007000402420085824a00fc
:101f000006034b0087834b00dfff07000802be007b
:101f10000a03be00000006002fb29700bfb2970070
:101f20004fb39700dfb3970000000600881f7800ca
:101f300018002000881f780089ff07008f87e900bc
:101f40004f04780000000600801feb0084ff0700ac
:101f50008f87e90000000600889fbe008a9fbe00b0
:101f6000e00f5000e08f5800e00f5900e08f59005b
:101f70000c003d006044b8006055b80000005400fb
:101f800081805c0002015d0083815d0018002000fb
:101f90001500070008003d00180007000004eb00d2
:101fa000050037000004eb000f00070002003d00b1
:101fb0001200070018002000dcff07000800e00006
:101fc000060032006022b8006033b8000000520002
:101fd00081805a0002015b0083815b004f05be00d7
:101fe0004f04be0000000600e00f5200e08f5a00d0
:101ff000e00f5b00e08f5b00000006006044b8006b
:102000006055b8000402540085825c0006035d0040
:1020100087835d0000000600889fbe008a9fbe0087
:102020008c1f7800e00f5000e08f5800e00f59003f
:10203000e08f59000d003d006044b8006055b800c5
:102040000000540081805c0002015d0083815d001e
:102050001c0020000820e10009a8e1000ab0e1000e
:102060000bb8e1000d003d00080037000006eb0052
:10207000e00f5200e08f5a00e00f5b00e08f5b0042
:1020800006003d006044b8006055b80004025400ea
:1020900085825c0006035d0087835d00aaff070060
:1020a0000c00e000060032006022b8006033b80087
:1020b0000000520081805a0002015b0083815b00b6
:1020c0004f0678004f05be004f04be00000006001a
:020000040000fa
:1020d000526500007369000073740000616e0000b7
:1020e0006365000020250000642000000a00000055
:020000040000fa
:1020f000aa0800001a00000002000000686a6c00d4
:10210000747a4c0000000100000200000400080086
:1021100000100000000020002b2d230030000000e4
:10212000000800008800000002000000010000001c
:102130000026080027082600082608002608260092
:102140000816080000000000000000000000000069
:10215000000000000000000000000000000000007f
:102160000002080001014e00084f08004e084e0012
:10217000084e08004e083e00080000000000000065
:10218000000000000000000000000000000000004f
:10219000000000000000020008020200760877003c
:1021a00008760800760876000876080066080000c1
:1021b000000000000000000000000000000000001f
:1021c00000000000000000000000000000082800df
:1021d000085008000000000000000000000000009f
:1021e000000000008808000022000000020000003b
:1021f000303132003334350036373800394142004f
:102200004344450046003000313233003435360057
:1022100037383900616263006465660000000000c1
:10222000c80800000200000000000000ca0800000a
:10223000020000000200000004000000c4080000ca
:102240000400000000000000cc08000002000000b4
:102250000200000001000000ce08000002000000a3
:08226000000000000000000076
:020000040000fa
:102268000400fa0001a3a9000103a90000e3a800e3
:1022780000c3a90000a3a8000118800080ff2f0058
:10228800008060005000b30000188800c0ff2f00d5
:10229800101888000623ef005118800000fe2f0058
:1022a800008060000000a000501888000ae3a80021
:1022b80001e3a8008560a90041058000f0ff28001f
:1022c8000080600000e0a000400588009560a8003c
:1022d8000aa3a800c00020004011880021e2a8003d
:1022e80000000000511880000004200000806000f9
:1022f8000000e000fbff3a0010198000000f780092
:102308000aa3a8009e007800110798009e0090007c
:10231800811f780080062900801f780091f8070047
:10232800e487570000382c00911c20000b000700a0
:1023380000000000ebff3700801f78000200fa0061
:102348008560a90000198000000f78000603a90025
:0c2358000080fa004f00780000400600f2
:020000040000fa
:10236400f03fb1000180b10006003500ee03090022
:1023740000000000403fb1000180b100fbff3d00c0
:102384001000b000203fb0000200350000800900ba
:0823940000000000000006003b
:020000040000fa
:0200000401f009
:04000000ffff0000fe
:020000040000fa
:0200000401f009
:04000800ffff0000f6
:020000040000fa
:0200000401f009
:04000c00feff0000f3
:020000040000fa
:0200000401f009
:04001000beff00002f
:020000040000fa
:0200000401f009
:040014007fff00006a
:020000040000fa
:0200000401f009
:04001800ffff0000e6
:020000040000fa
:0200000401f009
:04001c00ffff0000e2
:00000001FF
