:020000040000fa
:080000000001040000000000f3
:020000040000fa
:04000800d40100001f
:020000040000fa
:04000c00d40100001b
:020000040000fa
:04001000d401000017
:020000040000fa
:04001400d401000013
:020000040000fa
:04001800d40100000f
:020000040000fa
:04001c00d40100000b
:020000040000fa
:04002000d401000007
:020000040000fa
:04002400d401000003
:020000040000fa
:04002800d4010000ff
:020000040000fa
:04002c00d4010000fb
:020000040000fa
:04003000d4010000f7
:020000040000fa
:04003400d4010000f3
:020000040000fa
:04003800d4010000ef
:020000040000fa
:04003c00d4010000eb
:020000040000fa
:04004000d4010000e7
:020000040000fa
:04004400d4010000e3
:020000040000fa
:04004800d4010000df
:020000040000fa
:04004c00d4010000db
:020000040000fa
:04005000d4010000d7
:020000040000fa
:04005400381400005c
:020000040000fa
:04005800d4010000cf
:020000040000fa
:04005c00d4010000cb
:020000040000fa
:04006000d4010000c7
:020000040000fa
:04006400d4010000c3
:020000040000fa
:04006800d4010000bf
:020000040000fa
:04006c00d4010000bb
:020000040000fa
:04007000d4010000b7
:020000040000fa
:04007400d4010000b3
:020000040000fa
:04007800d4010000af
:020000040000fa
:04007c00d4010000ab
:020000040000fa
:04008000d4010000a7
:020000040000fa
:04008400d4010000a3
:020000040000fa
:04008800d40100009f
:020000040000fa
:04008c00d40100009b
:020000040000fa
:04009000d401000097
:020000040000fa
:04009400d401000093
:020000040000fa
:04009800d40100008f
:020000040000fa
:04009c00d40100008b
:020000040000fa
:0400a000d401000087
:020000040000fa
:0400a400d401000083
:020000040000fa
:0400a800d40100007f
:020000040000fa
:0400ac00d40100007b
:020000040000fa
:0400b000d401000077
:020000040000fa
:0400b400d401000073
:020000040000fa
:0400b800d40100006f
:020000040000fa
:0400bc00d40100006b
:020000040000fa
:0400c000d401000067
:020000040000fa
:0400c400d401000063
:020000040000fa
:0400c800d40100005f
:020000040000fa
:04010800d40100001e
:020000040000fa
:04010c00d40100001a
:020000040000fa
:04011000d401000016
:020000040000fa
:04011400d401000012
:020000040000fa
:04011800d40100000e
:020000040000fa
:04011c00d40100000a
:020000040000fa
:04012000d401000006
:020000040000fa
:04012400d401000002
:020000040000fa
:04012800d4010000fe
:020000040000fa
:04012c00d4010000fa
:020000040000fa
:04013000d4010000f6
:020000040000fa
:04013400d4010000f2
:020000040000fa
:04013800d4010000ee
:020000040000fa
:04013c00d4010000ea
:020000040000fa
:04014000d4010000e6
:020000040000fa
:04014400d4010000e2
:020000040000fa
:04014800d4010000de
:020000040000fa
:04014c00d4010000da
:020000040000fa
:04015000d4010000d6
:020000040000fa
:04015400d4010000d2
:020000040000fa
:04015800d4010000ce
:020000040000fa
:04015c00d4010000ca
:020000040000fa
:04016000d4010000c6
:020000040000fa
:04016400d4010000c2
:020000040000fa
:04016800d4010000be
:020000040000fa
:04016c00d4010000ba
:020000040000fa
:04017000d4010000b6
:020000040000fa
:04017400d4010000b2
:020000040000fa
:04017800d4010000ae
:020000040000fa
:04017c00d4010000aa
:020000040000fa
:04018000d4010000a6
:020000040000fa
:04018400d4010000a2
:020000040000fa
:04018800d40100009e
:020000040000fa
:04018c00d40100009a
:020000040000fa
:04019000d401000096
:020000040000fa
:04019400d401000092
:020000040000fa
:04019800d40100008e
:020000040000fa
:04019c00d40100008a
:020000040000fa
:0401a000d401000086
:020000040000fa
:0401a400d401000082
:020000040000fa
:0401a800d40100007e
:020000040000fa
:0401ac00d40100007a
:020000040000fa
:0401b000d401000076
:020000040000fa
:0401b400d401000072
:020000040000fa
:0401b800d40100006e
:020000040000fa
:0401bc00d40100006a
:020000040000fa
:0401c000d401000066
:020000040000fa
:0401c400d401000062
:020000040000fa
:0401c800d40100005e
:020000040000fa
:10020000af8b20000e9f20000e0188000000000030
:10021000000020000000e000020032000001200089
:100220002002880014000700c10007000000e00061
:1002300003003a002049210001002000020037009d
:100240000000200001002000810f7000010032003a
:1002500014000700000020000000e000020032004f
:100260000000020000000000661402000000000010
:100270000040da000000fe004440a90040002000d9
:100280000000e0000300320000002000a001880010
:100290004440a800000006008a1f78008b1f7800e9
:1002a0000000060091018800800478000000eb0047
:1002b0001a003700e284440032a0b4009905ba0065
:1002c000e284440032a0b4009906ba00e2844400fb
:1002d00032a0b4000006eb00476fde00fd07b2005d
:1002e000636ce10003003a00ebff07000000eb0045
:1002f0000a003700606ce10004003a00005deb008a
:100300008b05e900fdff3e00040037006168e10055
:10031000010032000086eb000b00070019c7ba008d
:100320001905ba000e04e00003003a000a00e000dc
:10033000e0ff3a0000000600fe07b2009e018800c0
:100340008a047800f5ff3700395dba008b05e900b3
:100350000c003200295dba008b05e900080032006c
:100360000c00e00003003a00e284440032a0b40034
:10037000f5ff370019ddba008b05e900faff3a00f6
:100380008904e800e184440032a0b40000000600c3
:10039000000000000000000000000000000000005d
:1003a00000000000000000000040da000000fe0035
:1003b0000a00fa0011002000b1bf9f00c0bf9f00db
:1003c0006a8057002c0807004fb897000080fa0099
:1003d000000006000a00fa00e20f50001f003e0075
:1003e000a0458000e10f5000060032000000200010
:1003f0000500200003002000040020000000e000b1
:1004000004003a0080222000452220002322200000
:1004100004222000060028009403630002003a0032
:1004200007087800140a730013a8a30001003a001b
:1004300013a0a00002007800050037001388a30075
:10044000feff32003102fb00840a78000000e90060
:100450000000e000f9ff3a000800370033002000f8
:10046000b3bf9f00c0bf9f00d1bf9f00e2bf9f00ee
:100470006a805700020807006fb9970002007800f1
:100480000080fa00000006000a00fa005100200077
:10049000b1bf9f00c0bf9f006a805700fa070700e6
:1004a0005fb897000080fa0000000600889fbe0039
:1004b00080047800c04580000000e00004003a009d
:1004c0000e0007000084eb000000e000080035008b
:1004d000c84580000900e000050032000900440022
:1004e000060007000000e00001003d000084eb0072
:1004f000080078004f04be0000000600800078006d
:100500000100e00003003a0000002000c045880020
:10051000000005000080eb0002002000828f5000e8
:1005200002003e00c14588000000eb00000006000c
:100530000000050003f0a200889fbe008a9fbe0055
:100540008c1f7800fe000700050133006450e100b5
:100550004f0032006420e1005200320003826c0040
:1005600007003b000905d0000306d000820f5400ad
:100570000c065d000200390002003200890178009b
:10058000030678008582550004003d000003fd004d
:100590008103fd008502ea008b854200840f720012
:1005a00002003b0060001000e08018006011b800fd
:1005b0000005eb007a28e1000a0039000600780007
:1005c000c75ddd00f707b200878075002d0037009a
:1005d000828171000a017800610560008180d1008c
:1005e0000080d3008502e900f9ff3b0006044000cb
:1005f0008784480002003b0060041400e0841c0073
:100600000988a300070032008a817100828171008d
:10061000610164008904d1000884d3008b05e800df
:10062000170037000978a30013003a000b00e00020
:10063000130034008b05e9000804440089844c0051
:100640000a4474000978a3000d003a000b00e00092
:10065000070034008b05e9000804440089844c003d
:1006600001003a000b0020000978a300f7ff3200d8
:100670000001eb0002003700828171000a0178005e
:10068000740007000cf0a70001f0a000bd003700c7
:100690006420e10002003a00838f6c00bd0033004b
:1006a0000801be000200be00b6003700889fbe00f1
:1006b0008a9fbe008c1f7800a1000700a8003300ad
:1006c00003866c006450e1002e0032006420e100db
:1006d000330032006150e1002f0032006120e10060
:1006e0003100320085855500eb07b000090020007d
:1006f00008042000050037000804440089844c00e9
:100700000a0031000603430087834b0000015300b9
:1007100081815b00f8ff33000203be000800a000e7
:100720000804440089844c00f6ff3900c639dd0016
:100730008301730001003200130020008904d100fe
:100740000884d3000998a300050032000800a70020
:100750000300a0008904d1000884d3008b05e800c1
:100760008904d1000884d3000001eb000281d2008b
:100770003800070001f0a1000cf0a70001f0a00074
:10078000800037006420e100820032000801be00d2
:100790000200be00f7ff37006120e1007d0032005b
:1007a0006000b800f3ff37000000200001f82700c8
:1007b000f0ff370014002000260237000001be00c1
:1007c0004a0007000470a70003f0a1006509b1000a
:1007d000160032000d0035006828e10006003500e3
:1007e000f0ff2f00f1ff27000300e00013003b00a3
:1007f0000100280000000500000040008180480042
:100800008502e900fcff3a0008003700f88f42003b
:1008100002003c008000eb00000005008100d100d8
:100820000080d3008502e800fcff3a000300e000ee
:1008300002003b0060001000e0801800000006008d
:100840004f89de00820178001f0237006011b80076
:100850002d02370081002000618055000b003d0013
:100860000b00200061fe2f000100e1001d0034009c
:1008700082817100610164008904d1000884d30081
:100880000000e800faff3a007100200061006400f7
:10089000030070000200600009003200610444009f
:1008a000e0844c000988a500050032008b05e800b3
:1008b0006808e10002003a008904d1000884d300ee
:1008c000f20f20000258e10005003d00c75ddd0089
:1008d000f907b20089807500080078000000060062
:1008e0000bf827008b00780000000500c70ade0027
:1008f000f107b200f50fb20008003200e1cf42006c
:10090000020032000170a00024000500810f700079
:10091000010032000408050044000500810f70004a
:1009200002003a00140005008502e90000004000c2
:1009300081c04800fcff3b000170a00024000500be
:100940000004be00e9ff07000003be000405be006e
:100950000200be00e5ff0700844f7500000006009e
:100960000200be006450e100050036006420e10092
:10097000020036000968a30001003a000800be002a
:100980000160a0004f0678004f05be004f04be0076
:1009900000000600f0ff2f00f1ff2700f9ff3700ed
:1009a000889fbe008a9fbe008c1f7800e4ff07006e
:1009b000ebff330003866c006450e100240032003a
:1009c0006420e100270032006150e1002200320083
:1009d0006120e100210032008b854200eb07b1006d
:1009e0000134b800003ab8000804420089844a0083
:1009f000013ab8000030b8008880400009014a0080
:100a000004003300000040008180480002014900da
:100a10008b05e900c909dd00830170000100320087
:100a200013002000c814de004814dd004709de0072
:100a30001200b200c808de000884700085ff0700bd
:100a400001f0a1000cf0a70001f0a000cdff3700dd
:100a50006120e100cfff32000801be000200be00ad
:100a6000f7ff37006150e100fcff3a00c9ff370093
:100a70000c00fa00889fbe008a9fbe008c9fbe00bb
:100a8000afff07000206be00840578000200be002a
:100a9000020020004801070005003a008b02b30065
:100aa000120020004401070001003a00f8856d00a3
:100ab0000c01be00c60007000800be009b0032000b
:100ac0000b08a3009e003a000df0a7000be0a00069
:100ad00009f0a7000bf0a00009f0a1000801be007a
:100ae000bb0007000bf0a6009500320001003c009f
:100af0000bd0a0008acf7500b20033006000b800b0
:100b00006250e10099003900a1003e000b28a300cb
:100b1000a2003a000bf8a300060032000b58a30015
:100b2000a70032000801be00a90007000800be00af
:100b3000940032000800be00b00007000004be00b0
:100b4000050578000bf0a7000b30a6000bf0a10004
:100b50005b079800324f200053f3230015ff070076
:100b600005003d000800be001200200095010700ae
:100b70000004be000a05e9004a0798006150b90068
:100b80002fff0700008fbe000c01be0084ff07008e
:100b90000aff0700300798000100e00002003d0056
:100ba00060001000e0801800f2ff2700820f500064
:100bb000e08f580064003e000c00be00fffe0700fe
:100bc00020079800f2072000820f5000e08f5800a5
:100bd00005003c0012f82f00f3ff2f00820f500099
:100be000838f580009003d000a00e0000300320036
:100bf00001003c000201ea00020578006000b80034
:100c0000200798003a079800190037003e0090002e
:100c10006100b9000aff0700809fbe000c00be0003
:100c20004109dd004811de007208b100e200070052
:100c30000005be001e01be0059ff07004f01be00a7
:100c40003cfe0700809fbe000c00be000a01be00f3
:100c500038fe07001e01be0051ff07004f01be0015
:100c600035fe07008221270013f323004cff070005
:100c70000005be002e0090006100b900f0fe0700e4
:100c800001f0a2000c01be002bfe07000006be0012
:100c90000800be006d0107000c01be0040ff070008
:100ca0000a01be0024fe0700809fbe004a00070024
:100cb0002e0590000af0a7000a05ea00050037009b
:100cc0000800be000801be0035ff07000004be009a
:100cd0000c00be000801be000a00a70030ff07009c
:100ce0000006be000a05d100f5ff3a005e01900043
:100cf00002e0a600030037000001be003600070036
:100d00006afe07000004be004f00be004800070056
:100d10000801be0022ff07003e01900029010700e4
:100d2000de0590000bf0a70001f0a2004f06be0008
:100d30004f05be004f04be000080fa000000060010
:100d400025000700f9ff3700270007006000b80002
:100d50000bd0a7000bc0a0000be0a7000bc0a200a7
:100d60000bc0a70001f82700f0ff37000df8a30023
:100d7000020032001e000700190007000bf8a30054
:100d8000eaff32000b30a70001f0a200e7ff3700b6
:100d90000df8a300f9ff3a00f7ff37000801be0085
:100da0000b000700e6ff320001003c000df0a2003e
:100db0006000b8000df0a70009000700dbff370056
:100dc0000b000700f1ff2700f0ff2f00d7ff3700cf
:100dd0000100070077fe370001f82300000005003e
:100de00001f8270000000500200220000100370064
:100df0001002200040408800000006000003be00f2
:100e0000bafe07006220e100020032000600be00c8
:100e100005000500e507b100f107b20004f023006a
:100e20008480700007f0a70001f0a00024000500f6
:100e3000889fbe008a9fbe008c9fbe000004be003b
:100e4000aafe07000800be006420e10048003e0042
:100e50005500320072212700132b24009800070050
:100e600047003c000800be00c2ec2800e32c2c0028
:100e700050fe0700470035000800be0001f0a10049
:100e800002002000033823004afe0700430035001b
:100e90000800be00b2a32a0083fb2300c0fe0700a7
:100ea0000200200003f0230001f0a70003f0a000df
:100eb000a1fd070041fe07000005be0060fe07001f
:100ec00001f0a2000006be000200280013f3230078
:100ed000b3fe07000801be0097fd0700809fbe001b
:100ee0000c00be0032082800e3952b00acfe070082
:100ef0004f01be0090fd07000006be000001be00cd
:100f0000a7fe0700809fbe004241250083b8230052
:100f1000a3fe07000200200003e8230086fd07006f
:100f20000c01be009efe07000006be004f00be0082
:100f3000f2f92b00c3d4230099fe07000200200021
:100f400003f023007cfd07000c01be0079fd0700c3
:100f50000001be000c00be00d4fd0700020020000e
:100f600003f0230074fd07006101450095000700b0
:100f70004f06be004f05be004f04be000000060035
:100f800001f82700000020002202200042408800d3
:100f9000f7ff37006000b800fbff370001f82300bf
:100fa00000002000f2ff370009f8a300f0ff320034
:100fb0006000b800eeff3700889fbe008a9fbe0029
:100fc0000003be0049fe07008505780082815200bb
:100fd000020020006220e10004003a00f307b100a3
:100fe000040035007718e100040035000600be005b
:100ff000140037006000b8000f003700f50f200024
:10100000faff2f008502d1000a85d3008301e90091
:10101000fcff3b008184620000046500890f7400be
:10102000f2ff32008582ea000a85ea0081846200cc
:101030000004650007fe070007f0a70001f0a0000c
:101040000081eb000200e0004f05be004f04be002f
:1010500000000600889fbe008a9fbe00841f7800a3
:1010600037fe07004f00780011003300f0ff2f001b
:10107000838f6c0006003b00040565000a00a70092
:101080000800370009f0a600100020000800370013
:10109000820f5400838f5c00030039001000200091
:1010a00001003e000000200009f0a7000000ea0057
:1010b0004f05be004f04be000000e0000000060027
:1010c000f4ff2f00e3ff3700881f78000304780047
:1010d0000300e00007003d0060001000e080180001
:1010e00060011900e081190002003b0001f02d00b1
:1010f000030037000400070008f0a70001f0a0007b
:101100004f04780000000600889fbe008a9fbe0042
:101110000082700004027100048271002600320017
:101120000004be000200be006011b8006b09200080
:10113000950220000182cf000a0039000541b1006c
:101140000082cf00070039000541b1000982cf00bd
:10115000040039000541b1000882cf0001003900c8
:101160000541b10005425200120032000a003b0066
:1011700082817100610164008100d1000080d30090
:101180008984d3000884d3008b05e8000442e8007a
:10119000f7ff3a00070037000804440089844c0038
:1011a00000004800818048008b05e9000442e90006
:1011b000f9ff3a00a7fd07004f05be004f04be002f
:1011c000000006000003be00c8fd07006220e10029
:1011d000020032000600be00000006008502410049
:1011e000e30f20000328e10005003c00a3fe2f00d0
:1011f0000328e10007003d00050020000100370042
:10120000f50f200020022000404088006000b80058
:1012100008003700130020008381520005003d00c4
:101220008100d1000080d3008301e800fcff3a0078
:1012300005002000c72add00f107b200858070009c
:1012400007f0a70001f0a00000000600889fbe0084
:101250008a9fbe008c9fbe00e8fe070085047800d0
:101260000005be006420e10049003e006220e1006c
:1012700003003200090035000bf8a30044003200df
:101280000bf8a30008003200100220004040880044
:10129000f0ff2f00f1ff27003d00370001f82f007d
:1012a000000020003a0037003d000700a1fc0700c5
:1012b0000006be000a00be00324f200053f3230098
:1012c0007fff0700060034000c00be00340007005a
:1012d00098fc07000006be000a00be0002003700ae
:1012e0008904e9000c00be002d000700acfd0700da
:1012f0002b00070090fc07000001be000c00be00a0
:10130000eafc07000005be000001be00a4fd0700c6
:101310000006be00a2f32300430d2c0086fc07004c
:10132000809fbe000c00be00d2e32700d3f02b004c
:101330009bfd07004f01be00dcfc07000006be005d
:101340000a01be0096fd07000a01be007afc0700f4
:101350000006be006148b90039fd07000005be0067
:1013600032082800e3952b008dfd07000c01be001c
:1013700071fc07000006be000a00be000200280043
:1013800013f3230086fd07000c01be006afc070072
:101390004f06be004f05be004f04be000000060011
:1013a00003f0230002000500218320000000370025
:1013b000889fbe008a1f78000004be00c90090000c
:1013c00069009000808f5000050039000900780006
:1013d0001d0007008080eb000000e00016003500d3
:1013e000084578004900900008587800c00498002b
:1013f0001900780000b8a30004003a0000a8a30078
:1014000007003200ea4f540005003a000900780056
:10141000b80107008080eb000000e00006003a0001
:1014200000c0200019006000020032004900900056
:10143000e00498008a80fb00010078004f057800e6
:101440004f04be0000000600889fbe008a1f78007f
:1014500000047800c8009000680190000000eb00d4
:10146000828f50003d0039001800780022002900ca
:1014700002016000e20f5100070032000120240049
:101480000000e00001003d0001202000008c700001
:101490000080eb00310037000200260002006000ef
:1014a000820f500009003a0038009000808f5000f1
:1014b00006003900080078008e01070080007800df
:1014c0000080eb000100e00024003a0018057800dd
:1014d00000c020000000650019003a00a804900038
:1014e0006002200008004000808f540014003a0081
:1014f0000020200001002000ae0207002004980018
:101500000000e00005003a00290498004904980012
:101510008904e80039049800080037000a60a00038
:101520000a0c7800400498000120200080804000d0
:1015300031049800400c9800500c980017010700e7
:101540002800900050049800380090006004980033
:1015500000002600180c70000000eb004f0578001a
:101560004f04be0000000600881f78008a9fbe005e
:1015700000047800010078000205be0088007800b1
:101580000202be001200200003002000e301070059
:101590008a0f50008b8f5800010032000004eb00ce
:1015a000080078004f05be004f04780000000600d8
:1015b0000000fa00e88157004fb99700218320000e
:1015c00040ab2000020007000080fa000000060087
:1015d0006200fa00889fbe008a9fbe000005780066
:1015e00081047800020478008300780060f92f00fd
:1015f0000f004000920107008a979f0099979f0073
:101600000000eb00a09f9f001885fb008a04fb00f0
:101610000a05ea004f55de0050022000808f54007a
:101620000e003200e10f55000c003a0012002000bd
:1016300003002000880078001f9097000f92970009
:101640000400010090979f000000e0009d00320020
:101650002f9897000000e800a09f9f000a04440014
:1016600050022000808f5400040032000900e00086
:10167000e5ff3a002f989700930037000000eb0039
:10168000809f9f00f0979f00e0979f00d0979f005a
:10169000c0979f00b0979f00c09f9f008004eb0001
:1016a00008003700618a2000810050008100d000ce
:1016b000a2892000828040004f989700110070009e
:1016c000c09f9f006141b8006148b800020540001a
:1016d000e24578008b00fb00608a20004001070093
:1016e0008904e8000000e000eeff3a00a1c2b30068
:1016f00081cf55000e003a00bf8897000180e900b5
:10170000b08f9f0010007800b09f9f000000e000a5
:1017100005003d000000ea00b09f9f004f98970031
:101720000020a000c09f9f000a04e80012003700bc
:10173000b09f9f006000b80006003700f3ff27004d
:10174000830f5000020032006a02b9000400410019
:101750008100e8006152b8006109b800040441004a
:10176000644179000201fb000203b100e90f51005e
:10177000f2ff3600b09f9f00e0c2b300984f100008
:10178000030032000080eb00909f9f002100370093
:1017900008007800a1c2b300d0cf100007003a00c3
:1017a0003f8997008280e900b18f9f009100780007
:1017b000919f9f000004e800160037000000eb0036
:1017c000909f9f008000eb0006003700f3ff27008a
:1017d000830f5000020032006a02b9000400410089
:1017e0008100e8000802e8008002eb006109b8000f
:1017f0000203420083834a00644179000201fb0036
:101800000203b100e90f5100f0ff3600909f9f00e6
:1018100006047800984478008900fb0020892000a5
:10182000ef0007000000e000020032000804e800ba
:10183000010037008044eb00a97f9f0080c6b30001
:1018400080cf540004003a0098cf14000a003a00f8
:101850006640500006003700c0c6b30080cf540079
:1018600005003a0098cf140003003a00654040009c
:10187000a07f9f000804e8001801fb00c3fb2f00b5
:101880008f81410061f92f008f80400080f92f0087
:101890000f004000100007000000e00009003a00bf
:1018a000c1fb2f008f80400080f92f000f00400007
:1018b000320207000000e000020035000804e800e2
:1018c00051ff37000080eb004f05be004f04be0003
:1018d0000080fa0000000600889fbe008a1f780082
:1018e0000004780030c5b300804f5100080032007a
:1018f00030c7b300804f51000500320051c2b30021
:1019000078009000814f510017003a001400370012
:101910001180e90080087800100578006a049800ba
:10192000d80c90000900e00004003d000a00780097
:10193000fa01070080047800070037006149b90008
:101940008000eb000a007800d10107000000e000f1
:10195000010032008a045000190c98000900370079
:101960008271780005003700808141000204e000a8
:1019700001003a0001417800824978000000e80047
:10198000700498000000eb004f0578004f04be0083
:101990000000060040d620009d003700881f780018
:1019a000688b20001804e00003003a00f9ff0700ec
:1019b00020c0b300004c78004f04780000000600ff
:1019c000889fbe00000478000800780049000700e6
:1019d000800478000004200018006000020032003b
:1019e00028009000980007000000eb0020049800f9
:1019f000384090000004e000050035000000fb00c6
:101a00006bfa07000000e000010032008084eb0068
:101a1000181090000000e000080032009afa070059
:101a20000000e000010032008084eb0018109000fc
:101a3000850007000000eb0010149800000820004b
:101a4000180060000f003200018820000000eb0049
:101a5000d10f140005003a0000004000218820004a
:101a6000008040000008eb00030037000000e800a1
:101a7000e80f5000f6ff3a000800780072000700f7
:101a80000e003700000c780000c0eb0030449800d6
:101a900060022000080040002004980040049800e4
:101aa00050049800400c980060049800500c980076
:101ab0007004980076004400000c9800090078003b
:101ac0004f04be0000000600889fbe002889200049
:101ad000f0045400480078000000e00001003200eb
:101ae000b7ff0700890f5400faff3a004f04be0009
:101af00000000600889fbe008a1f7800000478005e
:101b00000800e0000d003a0008882000700544003d
:101b10008004eb00580078000000e0000400320070
:101b2000f4ff07000000e00001003d008084eb00ae
:101b30008a0f5400f7ff3a0025003700000022000a
:101b4000180060008004eb0021003200a80490001f
:101b50000f00370009015100384090000000fb00e1
:101b6000890078001bfa07000000e00007003c0035
:101b7000280090004004980060049800500c9800e1
:101b80001890a0008084eb0011003700808444008e
:101b900048019000828f5400eeff39002800900029
:101ba000400498009800780002c020000281600084
:101bb00001003a003800900001e8a3000200320062
:101bc0006004980001003700500c98008004eb007e
:101bd000090078004f0578004f04be0000000600a1
:101be000020037000304e000060032000001780024
:101bf00002007800b041780081cf5100f9ff3a002f
:101c0000010037000001eb00020078000000060030
:101c1000010020000100e000080032000100800007
:101c20000100e000050032008100e90001008800a9
:101c3000818040000200800000b1780000000600b2
:101c400001087800000006000000e00032003200c9
:101c50004002be00e50f5200e08f5a002e00360011
:101c60000408a3002c003a00914580000100e00028
:101c700002003200810f5000040031002100980062
:101c800090458800170037008200780021019000fd
:101c90000200e00002003200800f5100faff39001c
:101ca0001103be0086814000830f50001a003900e6
:101cb000808f510004003a008418430085904b0047
:101cc00001007800070037000200e0000300320046
:101cd00004024000840f51000f00390022009800d8
:101ce000a0009800a00090000100e0000a0032006f
:101cf00010014000828f500007003a00028b200044
:101d00000009eb001001be0031184100219049008c
:101d1000a10090002100980000000600ea8747001b
:101d2000889fbe008a9fbe008c9fbe008e1f7800d9
:101d3000000678000204be000405be00010778001a
:101d40000400be00e2010700d0b79f00e1b79f008a
:101d5000e00f5000e08f580052003200e00f5400b6
:101d6000e08f5c0050003200fcb79f000006be0010
:101d7000ce0090006e009000808f5000040039006b
:101d80000e007800b0fd07000000e00033003500d1
:101d9000004020001e0060000c0032000c01be005c
:101da000a10020007fb09700b90007000002780072
:101db0000400e00008003200ffb1970061851100c7
:101dc0000a054200cfd5de00040037000c05be0036
:101dd0000002eb00010037000c05be004e00900031
:101de0006e01900000015100cf91de008a0f51007a
:101df0008b8f5900020031000205be000002eb008b
:101e00000a01be00ffb0970084bf9f00b800070022
:101e10000a0656008b865e004e0090000a004000c5
:101e2000400798000fba97000400e0000400320059
:101e30000e0078002fff07000000e00007003a00c6
:101e4000e00f5600e08f5e00040032007fb0970084
:101e50000a004000f0b79f00c5ff37000080200057
:101e60001e006000020032000e00780021ff070013
:101e700000c020001e00600002003200ce00900072
:101e8000610798005fb19700efb197000c00510017
:101e90008d8059000801be007d0107000005be00cd
:101ea000010037006055b8000a00be004f077800f7
:101eb0004f06be004f05be004f04be00af00b1008c
:101ec00000000600889fbe008a9fbe000004be007e
:101ed000814580000100e00002003200010078002e
:101ee0000f00370091458000208b2000050037004f
:101ef000b10f5400a18f5c002b00360064804000bd
:101f0000a10090000100e000f9ff3a001200370044
:101f1000b20f5400a28f5c00230036006400410021
:101f2000100178000200e000f9ff3a00110178008a
:101f300091458000208b200005003700b10f540030
:101f4000a18f5c001800360064804000a100900062
:101f5000828f5000f9ff3a006a4580007b4580007f
:101f6000880f5500898f5d00010031000805be0013
:101f70000a00be00750007000000e00006003a00fd
:101f8000880f5500898f5d00060032008b05d10057
:101f90000a85d300f2ff37000a98be002aff070027
:101fa000cbff37000000eb004f05be004f04be0022
:101fb00000000600889fbe000002be0065004000d1
:101fc000e0804800000378000600a100810178004d
:101fd000060178000204be008000eb00840f54006c
:101fe000858f5c0027003600e50f5400e08f5c0011
:101ff00002003e0068002000090020000800be002a
:10200000b0ff07008000eb000000e0001d00320080
:1020100090007800a4ff2f00f5ff2f00310142004f
:10202000a1814a00880f5100898f590003003100b7
:10203000a1029000050878000800370008814000e0
:1020400002087800a1019000230198001001780097
:102050003119140021911c008888be0010017800fd
:102060000000eb000200e00004003200a20190003a
:102070000300e00001003200640041008045880058
:10208000e4804000010078004f04be00000006001c
:10209000889fbe008a9fbe000202be008001eb0046
:1020a000060037008301e80066417c00814f510043
:1020b0000b00320061025200e0825a006103b80056
:1020c000611cb8000805430089854b00e00f5200f1
:1020d000e08f5a00f3ff3a000000eb0001003700e8
:1020e0000a0078004f05be004f04be000000060045
:1020f0000202be008001eb000400370061f07900ad
:1021000061025200e0825a008301e800e00f5200b1
:10211000e08f5a00f9ff3a000000060080007800c6
:102120000000eb00610ab8006101b800040341003f
:102130000000e800644179000204e000f9ff3a0081
:1021400001005300cf80de00000006000001be0049
:102150008000eb000200e00006003400020078007e
:10216000d2f8070080007800e18f400001003a00bb
:102170008000eb0001007800000006000400fa0077
:10218000889fbe008a9fbe008c1f780000047800e4
:1021900001067800f80d90007800900080855500c9
:1021a000080890008085550018089000808555002b
:1021b00028089000808555003808900080855500db
:1021c00048089000808555000002220090bf9f00c3
:1021d00000032300a0bf9f00081090000028a30068
:1021e00015003a000b00e000130034000b057800e6
:1021f0008a047800e20f5500010036002900200013
:102200006149b90048029000ee80570058009000e4
:1022100004000100500498000000e0008f0032002c
:102220006808900009004000600c980009055500fe
:102230004240a900eeff3c00780090000000e00062
:102240000d0034006101b900480290008c00780054
:102250005800900004000100500498008080eb00ba
:102260000000e0007e003200e80890007800900056
:1022700000804000600c9800880c90000900e0008d
:102280001100340009057800e28f54000100360087
:102290002a0020006151b90048029000ec805700ec
:1022a0005800900004000100500498000000e00075
:1022b0006a003200680890000a004000600c980034
:1022c0008a845400edff3700180890000000e000f9
:1022d0000d0034006101b90048029000e800900050
:1022e0005800900004000100500498008080eb002a
:1022f0000000e0005a003200e80890001808900042
:1023000000804000600c9800a80c90000900e000dc
:102310001100340009057800e28f540001003600f6
:102320002a0020006151b90048029000ec8057005b
:102330005800900004000100500498000000e000e4
:1023400046003200680890000a004000600c9800c7
:102350008a845400edff3700380890000000e00048
:102360000f0034006101b90018089000e8009000e7
:102370008080400048029000580090000400010056
:10238000500498008080eb000000e0003400320030
:10239000e80890003808900000804000600c980029
:1023a000c80c90000900e000110034000905780015
:1023b000e28f5400010036002a0020006151b9006c
:1023c00048029000ec805700580090000400010083
:1023d000500498000000e0002000320068089000df
:1023e0000a004000600c98008a845400edff37001a
:1023f000081090008000eb000028a30018003200b5
:102400000b00e000160034008b047800090578000a
:10241000e28f5400010036002a0020006151b9000b
:1024200048029000ee805700580090000400010020
:10243000500498000000e000080032006808900096
:102440000a004000600c98008a8454004240a900b1
:10245000eeff3c008000eb00010037008080eb00c5
:10246000010078004f0678004f05be004f04be0003
:102470000080fa000000060000c0da00000006003c
:1024800000c0da000000060000c0da00000006000c
:102490006022b800060220000000d0008180d20037
:1024a0000482d2008582d2000000a0000202520005
:1024b00083825a00030031000202420083824a00f4
:1024c0000000a1000603e900f3ff3a000000060047
:1024d000020ab900001bb9000200b80081004200e6
:0824e00081004300000006002a
:020000040000fa
:0824e800257300000000000054
:020000040000fa
:1024f0001800fa00881f7800100f9800210f98002c
:10250000320f98001e099000ae0990004207980013
:10251000530798000000eb00200798000000eb0034
:102520003007980018c0b3006011b8001e08900072
:10253000ae0890009ff807000000e00001003500a1
:102540000044eb000804e0000d0032003e00900063
:10255000be08900000804000d1c2b300014878005e
:102560003e0090000000e800300798001e08900030
:10257000ae08900001f0a200100f9800210f980003
:102580001e089000ae0890008cf80700000f78003d
:102590001e007800cf80de00a9f807000001be0011
:1025a0001e089000ae089000e2f70700100f980098
:1025b000210f980030002000100798001500370008
:1025c0001e009000cf80de009df807000001be00d5
:1025d000000020000112240025f9070077f8070009
:1025e000200798009e0078002e009000800178005f
:1025f000110009008300d800600798006e00900069
:102600000000e00007003c001e0090000000e90010
:10261000100798001e0090000000e000e8ff3d0059
:1026200001003700000000001e0090000000e800dc
:1026300020079800240037002e0090000000e900d9
:10264000cf80de007ef807000001be000000200001
:102650000112240006f9070058f8070070079800d7
:102660009e0078007e0090000001780011000900b3
:102670008200d800000f98003e009000be08900035
:10268000008040008e089000814078000143b00037
:10269000014878003e0090000000e80030079800f4
:1026a0009e0078007e0090008001780011000900f3
:1026b0008300d8008000fd00000f78002e009000fd
:1026c0000000e900200798002e0090000000e000c4
:1026d000d9ff3c003e009000be0890000080400002
:1026e000e1c2b300014878003e0090000000e8001d
:1026f000300798000000eb00200798002100370009
:1027000002002000031224001e089000ae08900072
:10271000a3f80700100f9800210f98001e089000e2
:10272000ae08900025f80700700798003e00900062
:10273000be08900000804000fe00900081407800bc
:102740000143b000014878003e0090000000e8001e
:10275000300798007e009000cf80de0038f8070038
:102760000001be001e089000ae08900071f707003f
:10277000100f9800210f98002e0090000000e80034
:10278000200798002e009000e20f5000dcff34007c
:102790003e009000be089000008040008040eb00aa
:1027a000014878004f0478000080fa00000006001d
:1027b0000000fa0001a3a9000103a90000e3a90099
:1027c00000c3a90000a3a8000118800080ff2f000b
:1027d000008060000020a000001888000223ef00a5
:1027e0000623ef005118800000fe2f0000806000db
:1027f0000000a000501888000ae3a80001e3a80028
:102800008560a90041058000f0ff2800008060007d
:1028100000e0a000400588009560a8000aa3a80079
:10282000101980008000eb0008f8070002002c005f
:10283000f34724009df7070002002000030a24004c
:1028400057f8070020408800314088002040800071
:1028500031408000020020000302240035f7070009
:1028600020408800314088000080fa000000060007
:10287000801f78000000fa000019800000408800e6
:1028800010198000104088008560a9000603a90087
:102890000080fa004f007800004006000000fa00b7
:1028a00010002000a04588002002a9002022a900d5
:1028b0002042a9002062a80021e2a80030032000e5
:1028c000401188000080fa00000006002200fa0093
:1028d000b7ff070020db2900f1ea2b00008fbe00c4
:1028e00064004700000178001e00be0000ff0700e2
:1028f000eaff070064004700801f78004027290096
:10290000801f78002afb0700e4875700a000200002
:10291000a5fa0700008823001100200057000700d7
:04292000f4ff370089
:020000040000fa
:10292400000800000800000000000000b4080000d7
:10293400020000000200000001000000080800007e
:1029440002000000000000000a08000088000000e7
:1029540002000000010000000030080031083000cf
:10296400083008003008300008200800000000008b
:102974000000000000000000000000000000000053
:1029840000000000000000000002080001015800df
:102994000859080058085800085808005808480002
:1029a400080000000000000000000000000000001b
:1029b4000000000000000000000000000000020011
:1029c4000802020080088100088008008008800056
:1029d40008800800700800000000000000000000eb
:1029e40000000000000000000000000000000000e3
:1029f400000000000a083200085a08000000000025
:102a04000000000000000000000000009208000028
:102a14001a00000002000000686a6c00747a4c001e
:102a24000000010000020000040008000010000083
:102a3400000020002b2d230030000000b608000009
:102a44000200000000000000ac08000004000000c8
:102a5400020000000600000000000000b0080000b2
:102a64000400000000000000b8080000020000009c
:082a740000000000000000005a
:020000040000fa
:102a7c00f03fb1000180b10006003500ee03090003
:102a8c0000000000403fb1000180b100fbff3d00a1
:102a9c001000b000203fb00002003500008009009b
:082aac0000000000000006001c
:020000040000fa
:0200000401f009
:04000000ffff0000fe
:020000040000fa
:0200000401f009
:04000800ffff0000f6
:020000040000fa
:0200000401f009
:04000c00feff0000f3
:020000040000fa
:0200000401f009
:04001000beff00002f
:020000040000fa
:0200000401f009
:040014007fff00006a
:020000040000fa
:0200000401f009
:04001800ffff0000e6
:020000040000fa
:0200000401f009
:04001c00ffff0000e2
:00000001FF
